{
  "transactions": [
    {
      "hash": "0x9586ecac886f4fd7a8dc61914554730e85b25ea4aca15333897a7a08ab00273c",
      "transactionType": "CALL",
      "contractName": "LinkToken",
      "contractAddress": "0x779877a7b0d9e8603169ddbd7836e478b4624789",
      "function": "transferAndCall(address,uint256,bytes)",
      "arguments": [
        "0x8103B0A8A00be2DDC778e6e7eaa21791Cd364625",
        "3000000000000000000",
        "0x0000000000000000000000000000000000000000000000000000000000002bd0"
      ],
      "transaction": {
        "from": "0xdab8892c07fb4c362dd99d9a2fbff8b555d39cb5",
        "to": "0x779877a7b0d9e8603169ddbd7836e478b4624789",
        "gas": "0x1b43f",
        "value": "0x0",
        "input": "0x4000aea00000000000000000000000008103b0a8a00be2ddc778e6e7eaa21791cd36462500000000000000000000000000000000000000000000000029a2241af62c0000000000000000000000000000000000000000000000000000000000000000006000000000000000000000000000000000000000000000000000000000000000200000000000000000000000000000000000000000000000000000000000002bd0",
        "nonce": "0x20",
        "chainId": "0xaa36a7",
        "accessList": null,
        "type": null
      },
      "additionalContracts": [],
      "isFixedGasLimit": false
    }
  ],
  "receipts": [
    {
      "status": "0x1",
      "cumulativeGasUsed": "0x1d5444",
      "logs": [
        {
          "address": "0x779877a7b0d9e8603169ddbd7836e478b4624789",
          "topics": [
            "0xddf252ad1be2c89b69c2b068fc378daa952ba7f163c4a11628f55a4df523b3ef",
            "0x000000000000000000000000dab8892c07fb4c362dd99d9a2fbff8b555d39cb5",
            "0x0000000000000000000000008103b0a8a00be2ddc778e6e7eaa21791cd364625"
          ],
          "data": "0x00000000000000000000000000000000000000000000000029a2241af62c0000",
          "blockHash": "0xc63cb5c54360f82746ded610c22143910d42a1eed0612465c64ff577c39295c7",
          "blockNumber": "0x577c85",
          "transactionHash": "0x9586ecac886f4fd7a8dc61914554730e85b25ea4aca15333897a7a08ab00273c",
          "transactionIndex": "0x14",
          "logIndex": "0x24",
          "removed": false
        },
        {
          "address": "0x779877a7b0d9e8603169ddbd7836e478b4624789",
          "topics": [
            "0xe19260aff97b920c7df27010903aeb9c8d2be5d310a2c67824cf3f15396e4c16",
            "0x000000000000000000000000dab8892c07fb4c362dd99d9a2fbff8b555d39cb5",
            "0x0000000000000000000000008103b0a8a00be2ddc778e6e7eaa21791cd364625"
          ],
          "data": "0x00000000000000000000000000000000000000000000000029a2241af62c0000000000000000000000000000000000000000000000000000000000000000004000000000000000000000000000000000000000000000000000000000000000200000000000000000000000000000000000000000000000000000000000002bd0",
          "blockHash": "0xc63cb5c54360f82746ded610c22143910d42a1eed0612465c64ff577c39295c7",
          "blockNumber": "0x577c85",
          "transactionHash": "0x9586ecac886f4fd7a8dc61914554730e85b25ea4aca15333897a7a08ab00273c",
          "transactionIndex": "0x14",
          "logIndex": "0x25",
          "removed": false
        },
        {
          "address": "0x8103b0a8a00be2ddc778e6e7eaa21791cd364625",
          "topics": [
            "0xd39ec07f4e209f627a4c427971473820dc129761ba28de8906bd56f57101d4f8",
            "0x0000000000000000000000000000000000000000000000000000000000002bd0"
          ],
          "data": "0x000000000000000000000000000000000000000000000000000000000000000000000000000000000000000000000000000000000000000029a2241af62c0000",
          "blockHash": "0xc63cb5c54360f82746ded610c22143910d42a1eed0612465c64ff577c39295c7",
          "blockNumber": "0x577c85",
          "transactionHash": "0x9586ecac886f4fd7a8dc61914554730e85b25ea4aca15333897a7a08ab00273c",
          "transactionIndex": "0x14",
          "logIndex": "0x26",
          "removed": false
        }
      ],
      "logsBloom": "0x0000001400000000000000000000000000000000000000020000000002000000000000000000800000000000000000200000000000000000010000000000000000000000000000000000000800000000000000000000000000002000000000000001000000000000000000000000000000000000400400000000001000000000000000000c000020000000000000800010000020000000000000000000000000000000000000000000000000800000000000000000000000000400000000000000000002000000000000000000000000000000000000000100000000000000000000000000000000000000000000000400000000000000000000000000000000",
      "type": "0x2",
      "transactionHash": "0x9586ecac886f4fd7a8dc61914554730e85b25ea4aca15333897a7a08ab00273c",
      "transactionIndex": "0x14",
      "blockHash": "0xc63cb5c54360f82746ded610c22143910d42a1eed0612465c64ff577c39295c7",
      "blockNumber": "0x577c85",
      "gasUsed": "0x12a4a",
      "effectiveGasPrice": "0x59716549",
      "from": "0xdab8892c07fb4c362dd99d9a2fbff8b555d39cb5",
      "to": "0x779877a7b0d9e8603169ddbd7836e478b4624789",
      "contractAddress": null
    }
  ],
  "libraries": [],
  "pending": [],
  "returns": {},
  "timestamp": 1713552603,
  "chain": 11155111,
  "commit": "abe9618"
}